{
  "contractName": "HelloWorld",
  "abi": [
    {
      "inputs": [
        {
          "internalType": "uint256",
          "name": "a",
          "type": "uint256"
        },
        {
          "internalType": "uint256",
          "name": "b",
          "type": "uint256"
        }
      ],
      "name": "requireExample",
      "outputs": [
        {
          "internalType": "uint256",
          "name": "",
          "type": "uint256"
        }
      ],
      "stateMutability": "pure",
      "type": "function",
      "constant": true
    },
    {
      "inputs": [
        {
          "internalType": "uint256",
          "name": "a",
          "type": "uint256"
        },
        {
          "internalType": "uint256",
          "name": "b",
          "type": "uint256"
        }
      ],
      "name": "assertExample",
      "outputs": [
        {
          "internalType": "uint256",
          "name": "",
          "type": "uint256"
        }
      ],
      "stateMutability": "pure",
      "type": "function",
      "constant": true
    },
    {
      "inputs": [],
      "name": "revertExample",
      "outputs": [],
      "stateMutability": "pure",
      "type": "function",
      "constant": true
    }
  ],
  "bytecode": "0x608060405234801561000f575f80fd5b506103a18061001d5f395ff3fe608060405234801561000f575f80fd5b506004361061003f575f3560e01c80635f4db63014610043578063b30415151461004d578063fa53bf6a1461007d575b5f80fd5b61004b6100ad565b005b6100676004803603810190610062919061019b565b6100e8565b60405161007491906101e8565b60405180910390f35b6100976004803603810190610092919061019b565b61013f565b6040516100a491906101e8565b60405180910390f35b6040517f08c379a00000000000000000000000000000000000000000000000000000000081526004016100df9061025b565b60405180910390fd5b5f80820361012b576040517f08c379a0000000000000000000000000000000000000000000000000000000008152600401610122906102c3565b60405180910390fd5b8183610137919061030e565b905092915050565b5f8082036101505761014f61033e565b5b818361015c919061030e565b905092915050565b5f80fd5b5f819050919050565b61017a81610168565b8114610184575f80fd5b50565b5f8135905061019581610171565b92915050565b5f80604083850312156101b1576101b0610164565b5b5f6101be85828601610187565b92505060206101cf85828601610187565b9150509250929050565b6101e281610168565b82525050565b5f6020820190506101fb5f8301846101d9565b92915050565b5f82825260208201905092915050565b7f54686973206973206120637573746f6d20726576657274206d657373616765005f82015250565b5f610245601f83610201565b915061025082610211565b602082019050919050565b5f6020820190508181035f83015261027281610239565b9050919050565b7f4469766973696f6e206279207a65726f206973206e6f7420616c6c6f776564005f82015250565b5f6102ad601f83610201565b91506102b882610279565b602082019050919050565b5f6020820190508181035f8301526102da816102a1565b9050919050565b7f4e487b71000000000000000000000000000000000000000000000000000000005f52601260045260245ffd5b5f61031882610168565b915061032383610168565b925082610333576103326102e1565b5b828204905092915050565b7f4e487b71000000000000000000000000000000000000000000000000000000005f52600160045260245ffdfea26469706673582212203d5b59a5ad2d1255aaeaff742128edc1521838bf49d2682bf8786517348a423764736f6c63430008140033",
  "immutableReferences": {},
  "source": "// SPDX-License-Identifier: MIT\r\n// compiler version must be greater than or equal to 0.8.17 and less than 0.9.0\r\npragma solidity ^0.8.17;\r\n\r\ncontract HelloWorld {\r\n    function requireExample(uint256 a, uint256 b) public pure returns (uint256) {\r\n        require(b != 0, \"Division by zero is not allowed\");\r\n        return a / b;\r\n    }\r\n\r\n    function assertExample(uint256 a, uint256 b) public pure returns (uint256) {\r\n        assert(b != 0);\r\n        return a / b;\r\n    }\r\n\r\n    function revertExample() public pure {\r\n        revert(\"This is a custom revert message\");\r\n    }\r\n}",
  "sourcePath": "C:\\Users\\rhima\\Desktop\\solidity_starter-main\\solidity_starter-main\\contracts\\HelloWorld.sol",
  "compiler": {
    "name": "solc",
    "version": "0.8.20+commit.a1b79de6.Emscripten.clang"
  },
  "schemaVersion": "3.4.14",
  "updatedAt": "2023-06-05T12:25:32.618Z",
  "networkType": "ethereum",
  "devdoc": {
    "kind": "dev",
    "methods": {},
    "version": 1
  },
  "userdoc": {
    "kind": "user",
    "methods": {},
    "version": 1
  }
}